:400000000080002011000000350300003503000008B5044B1A6803F53F5302331A6000F091F900BFFA46004010B5054C237833B9044B13B10448AFF300800123237010BD7D
:400040004081FF1F00000000A8190000084B10B51BB108490848AFF300800848036803B910BD074B002BFBD0BDE81040184700BF000000004481FF1FA8190000C880FF1F90
:400080000000000008B5002304E00021104AD1540133DBB2032BF8D9002305E00C4A1A44002111710133DBB2012BF7D962B60221002000F09DFA00F0DFFA0028FBD004223C
:4000C0000349012000F0FCFA022000F043FB08BD5C81FF1F10B501F08DFB064C207001F08FFB607001F092FBA07001F0D5FBE07010BD00BF5C81FF1F08B5FFF7C3FF012076
:4001000000F066FB0028FAD0FFF7E4FF012000F0B9FA012803D10422094900F0D1FA022000F0B0FA0128EAD1022000F0B5FA02460449022000F024FB022000F00BFBDEE7AB
:400140005C81FF1F6081FF1FF0B40022174611E050F82760F3B226F0FF0608E001EB420511F812406D78A5550132013BDBB2002BF4D101371E2FEBD9F0BC70474FF6FF723F
:40018000144B1A80182202331A70062203F27E231A705222A3F580731A700F4B1B78DBB20E4A1370A2F29D6200231380072111700B490B7048200231087013700532137016
:4001C0000222084B1A70084A137843F001031370704700BF804000400F010049A14600400640004001400040A2430040064B1B78DBB203F00701054A11701B09013213702F
:400200004422034B1A707047CF0100496E5800407658004008B50A46002101F0BCFB08BD08B501F0ADFB08BD38B572B600240CE02D4D630019194A0011462A44084691883C
:400240002858FFF7E7FF0134E4B2052CF0D927494FF09040FFF778FF254A137843F0020313701032137843F002031370214C237843F040032370A2F58632513A137843F08B
:400280001003137008221C491C48FFF7C9FF08221B491C48FFF7C4FF0A221B491B48FFF7BFFF08221A491B48FFF7BAFF08221A491A48FFF7B5FF082219491A48FFF7B0FFDA
:4002C000194A137843F008031370184D61232B70FFF754FF81232B70FFF788FF0E2221461348FFF79DFF38BDAC1900007C00004803500140A04300403404004802510040FA
:400300003C040048C251004044040048F05100405004004812510040580400482251004060040048325100402243004000480040B043004008B501F0F7FA03680C2B00D15A
:40034000FEE7FEE708B5104E104D16E029686B68AC68002204E051F8040B43F8040B0432A242F8D1E868002203E0002143F8041B04328242F9D11035013E002EE6D101F054
:40038000D9FAFFF7B9FEFEE701000000501B000008B5104A104B1A60104A136843F40073136000230AE0032B03D80D4A52F8231000E00C490C4A42F8231001332F2BF2D953
:4003C0000A4B1A780A4B1A70074A0A4B1A60FFF72BFF08BD0004FA050CED00E014ED00E000000000350300000080FF1FBC760040C080FF1F08ED00E0F8B501F05DFA0646B9
:400400003C4A137843F0010313701032137843F0010313700125384B1D700227943B1F7002F5E2521B32137803F07F031370002001F0FCF9314C237803F0F9032370304A98
:40044000137803F0DF03137023782B432370284601F0ECF9282001F0E9F92A4B1A7802F07F021A701A7802F0BF021A7023783B432370384601F0DAF9237843F00403237075
:400480000024214B1C7001331C70304601F018FA0721172001F0E8F91C49172001F0D0F90721182001F0E0F91949182001F0C8F90721152001F0D8F91649152001F0C0F98D
:4004C0000721204601F0D0F91349204601F0B8F90721284601F0C8F91049284601F0B0F907210C2001F0C0F90D490C2001F0A8F9F8BD00BFA54300409D60004094430040A5
:4005000012600040F851004084600040CD0C0000F10A0000C90C0000650C0000950C0000650F000010B5002304E00124234AD4542344DBB2002BF8D0214B18700023214A3E
:400540001370214A1370214A1370214A1370214A1370214A1370214A1370214B4FF400021A604FF080721A604FF400121A6001221A6002221A6011B1012906D00BE0194A74
:40058000137803F0FE0313700AE0164A137843F00103137004E0134A137843F0010313700322114B1A708022203B1A70012001F07BF904220D4B1A7010BD00BF0882FF1FD0
:4005C0007481FF1F8B81FF1F8A81FF1F8481FF1F8981FF1F7581FF1FFD81FF1F6881FF1F00E100E009600040286000401260004038B504460D46064B1B7823B9FFF7FCFE75
:400600000122034B1A7029462046FFF78BFF38BD6281FF1F002304E001210E4AD1540B44DBB2002BF8D000230B4A13700B4A13700B4A13700B4A13700B4A13700B4A1370CC
:400640000B4A137003220B4B1A708022203B1A70704700BF0882FF1F8B81FF1F8A81FF1F8481FF1F8981FF1F7581FF1FFD81FF1F6881FF1F28600040014B1878704700BF89
:400680008481FF1F00EB40008300024A13445878704700BF8C81FF1F431EDBB2072B0BD8064B00011A18185C00F00F00537843EA0020023880B2704700207047FC5F0040AE
:4006C000431EDBB2072B3CD8F0B4074600EB4004A3001C4C2344DB889BB2C3F500739A4208D900EB400293002344DA8892B2C2F5007292B200EB4004A300124C2344DB7878
:4007000043EA1223104D04012E192B55D3B2737039B909E0CE5C3D010C4C665501339BB200E000239A42F5D8420002449300054A134400225A705A79D2B20001044B1A5481
:40074000F0BC70478C81FF1FFC5F004078600040FE5F0040431EDBB2072B0BD8420002449300054A134400225A705A79D2B20001024B1A54704700BF8C81FF1FFE5F00409A
:4007800070B5D9B1054614460E46C8B1082819D8FFF782FFA04203D22846FFF77DFF0446002305E02901094A525CF25401339BB2A342F7D32846FFF7CDFF04E0002402E0DC
:4007C000002400E00024204670BD00BF78600040431EDBB2072B06D80001044B185C00F01000C0B270470020704700BFFE5F00401D4B19781D4A13889BB20B449BB21380D2
:4008000000220FE01A494B681B78DBB2194883544B6801334B600132D2B20B889BB2013B9BB20B80124B1B889BB20BB1072AE9D90D4B1B78DBB2082B00D05AB10E490B78A0
:4008400083F080030B700F210C4B197002210C4B197004E0022309490B7009490B70094B1A70014B1A7070476881FF1F6A81FF1F7881FF1F00600040F881FF1F7781FF1F72
:400880008B81FF1F7681FF1F0222074B1A708022064B1A700F22064B1A700023054A1370054A1370012070478B81FF1FF881FF1F7781FF1F6881FF1F7681FF1F08B5FFF72B
:4008C00097FF08BD10B4194B197801F00F010239C9B2174A13889BB20B449BB21380002011E0144A5468144B1B5CDBB223705368013353600130C0B20139C9B213889BB2B2
:40090000013B9BB213800B4B1B889BB20BB10029E7D10A4B19700A4A137883F0800313700B22084B1A7010BC704700BF296000406A81FF1F7881FF1F006000407681FF1F98
:40094000F881FF1F7781FF1F0623064A1370064A13708022054B1A700022054B1A700120704700BF8B81FF1F7781FF1FF881FF1F7681FF1F064B9B6843B1054B9A681070E6
:400980009A6804490988518000229A60704700BF7881FF1F6A81FF1F08B5134B1A78D2B21A701B78DBB213F0800F02D00F4A137008BD0220FFF7DEFF0D4B1B7803F06003BE
:4009C000202B05D0402B06D043B900F073FD06E000F07AFF03E000F001FF00E0002010B90322024B1A7008BD286000407781FF1F0060004008B5094B1978094A13889BB233
:400A00000B449BB213800022064B1A700120FFF7B1FF0322044B1A7008BD00BF6881FF1F6A81FF1F8B81FF1F7781FF1F08B50B4B1B78DBB2042B06D0062B07D0022B0BD1A8
:400A4000FFF7D8FF08BDFFF73DFF08BD0320FFF791FF0322024B1A7008BD00BF8B81FF1F7781FF1F08B50022044B1A700120FFF781FF0322024B1A7008BD00BF8B81FF1F8B
:400A80007781FF1F08B50B4B1B7813F0FF0F07D0084A137843F0800307490B70002313700022064B1A700120FFF764FF0322044B1A7008BD7581FF1F086000408B81FF1F6E
:400AC0007781FF1F08B5094B1B78DBB2042B06D0062B07D0022B07D1FFF7F0FE08BDFFF7C1FF08BDFFF7CEFF08BD00BF8B81FF1F08B5284B1B78DBB213F0100F48D013F07B
:400B0000800F0CD003F00F03012B16D1FFF744FF214B1B7813F0800F11D1012312E013F0400F03D0FFF7CEFF01230BE013F0200F07D0FFF77BFF012304E0002302E00023D0
:400B400000E0002323B3134B1B7813F0800F1FD1124B1B78124A12781343124A13701278D2B2934214D10C4B1B78DBB2094A127812F0800F07D1084B1B78DBB2054A137054
:400B8000137803F00F03044A1278D2B29342EAD108BD00BF286000407781FF1FF881FF1F7681FF1F296000400022064B1A80064B9B682BB1044A916800230B7092685380F3
:400BC000704700BF6A81FF1F7881FF1F08B50F4B1B889BB213B9FFF757FE15E002220C4B1A7000220B4B1A70FFF7DEFF0A4AD179937943EA0123054A128892B2934201D2A2
:400C0000024A1380FFF7F4FD012008BD7881FF1F8B81FF1FF881FF1F0060004008B504220B4B1A7080220B4B1A70FFF7BDFF0A4AD179937943EA0123084A128892B2934299
:400C400001D2064A13800B22054B1A70012008BD8B81FF1FF881FF1F006000407881FF1F7781FF1F0122094B1A700F3B9B7C084B1B7B03F00303934204D0054AD37B83F046
:400C80008003D3730122024B5A7370470B6000408C81FF1F02220A4B1A700F3B93F82230084B1B7E03F00303012B04D0054AD37E83F08003D3760122024B5A76704700BFFD
:400CC0000B6000408C81FF1F704700BF08B5FFF7A1FC08BD08B50C4B18780138C0B200F097F90A4B1B79DBB29A1C00EBC20042680749CB5C02EBC3035B68596A0B78054ABF
:400D00001380516008BD00BF8481FF1F006000406C81FF1F7881FF1F08B50E4B18780138C0B200F075F90C4B1B79DBB29A1C00EBC20042680949CB5C02EBC3035B68DB699F
:400D4000597813F8022B42EA012205490A804B6008BD00BF8481FF1F006000406C81FF1F7881FF1F10B50022194B1A80194B18780138C0B200F04CF9174AD3781279D2B2BB
:400D8000911C00EBC10041680ABBDBB21348825C01EBC20149685A1ED2B2022A17D803F10053013B01EBC3000B4A9278D2B211F833309A420BD8406802EB4202910042182B
:400DC0005468034B5C60415A198092689A6010BD7881FF1F8481FF1F006000406C81FF1F08B55B4B1A79D2B21B7813F0800F4DD0574B5B78013B052B00F28D80DFE803F0FD
:400E0000212B3B8B8B03524BDB78DBB2212B09D1FFF760FF4F4B1B889BB2002B7DD0FFF7D5FE08BD4A4BDB78DBB2222B77D1FFF773FF484B1B889BB2002B72D0FFF7C6FE6E
:400E400008BDFFF78FFF434B1B889BB2002B6AD0FFF7BCFE08BD002A67D13D4B9B7813F0FF0F64D13B4901230B803B4B1A444A60FFF7ACFE08BD002A5BD1364901230B80E4
:400E8000364B1A444A60FFF7A1FE08BD304B5B78DBB20A2B0DD00B2B2FD0092B4BD1FFF761FF2C4B1B889BB2002B46D0FFF7B6FE08BD002A43D1264B9B7813F0FF0F40D18C
:400EC000234BDB78DBB224498B54895CC9B2244B9B5CDBB2994203D20021214B995409E01F4B9B5CDBB2012B04D91B4B9B5CDBB21B498B54FFF728FD08BD22BB144B9B789F
:400F0000DBB2012B21D8124B9B78DBB213498B54FFF71AFD08BD002008BD002008BD002008BD002008BD002008BD002008BD002008BD002008BD002008BD002008BD0020E3
:400F400008BD002008BD002008BD002008BD00BF006000407881FF1F0482FF1F0882FF1F0082FF1F08B500F057FC08BD10B401233EE019461A010C242148845403EB4300B4
:400F8000820020480244527912F0FF0F13D003EB430082001B480244127912F0800F04D01801194A024494700AE01801164A02440820907004E01801134A02448020907020
:400FC0004800084482000F480244D488E4B208010B4901448C71D088C0F30720C871D088C0B20871D288C2F307224A710133DBB2082BBED9FF22054B1A7010BC704700BF44
:40100000706000408C81FF1FFC5F00400A600040074B1A78074B03EBC2035B681A7C824204D9C0001030184440687047002070477481FF1FD0190000F8B5404B1B7813F0F1
:40104000FF0F79D03D4B18780138C0B2FFF7E0FF047AC2683A4B1878C0B200236AE01178884264D13749095CC9B25578A9425ED1917801F07F01D67806F00306DFF8C8E0D0
:401080004D000D44AF000EEB07054FF0000C85F803C092F802C085F804C092F803C00EF807C097882F8192F90250002D0DDA012E01D1072700E00D274E000E44B500224EE4
:4010C00035446F7101266E700CE0012E01D1052700E009274E000E44B5001B4E35446F7100266E70DFF868E00F010EEB07060125B57001FA05F529448D00134929440D8980
:40110000C5F307250EF807500D89EDB27570CE88F6B20E4D3D44AE71CE88C6F30726EE71CE88F6B22E71C988C1F30721697108320133DBB2A34292D3F8BD00BF8481FF1F40
:401140008981FF1F6C81FF1F8C81FF1F70600040FC5F0040034B1A78034B03EBC2035868704700BF7481FF1FD019000008B5084B18780138C0B2FFF74BFF30B142681279B2
:40118000023200EBC203586808BD002008BD00BF8481FF1F2DE9F041002310E0684D5900CA189600AC190022AA55A270E2702281A272627034462C4462710133DBB2082B9B
:4011C000ECD940B90AE000225E49CA545E49CA540133DBB200E00023002BF4D05B4B1B7813F0FF0F00F0A980584B18780138C0B2FFF70EFF4368DB7913F0400F05D0544AE0
:40120000137843F00103137004E0514A137803F0FE031370057A012464E0C16800235DE08A7802F07F02944255D1264604EB4407BA00434F3A44128992B28F88BA4207D2CB
:4012400004EB440E4FEA8E02DFF8F4E0724417810A783C4FBA5CD2B24F78BA423BD191F802C0DFF8DCE07200324497000EEB070282F804C0CA780EF80720CA7802F00302B0
:4012800091F90270002F13DA012A02D14FF0070801E04FF00D08DFF8A8E0720002EB060C4FEA8C07774487F8058001267E7012E0012A02D14FF0050801E04FF00908DFF8E1
:4012C00080E0720002EB060C4FEA8C07774487F8058000267E7008310133DBB2AB429FD30134E4B2082C98D9C06800220CE0837803F07F0310F8084B03EB43039900104B8C
:4013000019448C720132D2B2AA42F0D3FFF72EFF104B1860002101230BE0094D5A00D01884002C44E180228992B2114489B20133DBB2082BF1D9FFF719FEBDE8F08100BFBA
:401340008C81FF1F6C81FF1F8881FF1F8481FF1FFD81FF1F7081FF1F08B5154B1B7903F07F035A1ED2B2072A20D8590019448A0010490A44917841F0010191700021D17071
:40138000517841F002015170127912F0800F05D01B01094A1A448D23937004E01B01064A1A4489239370FFF7CFFA08BD002008BD006000408C81FF1FFC5F0040274B1B79CC
:4013C00003F07F035A1ED2B2072A44D810B5590019448A0022490A44917801F0FE0191700021D1701F4C1801215C01F07F012154517801F0FD015170127912F0800F13D0B6
:4014000003EB43018A0016490A445278D2B2012A04D1224602440C23937019E01B01114A1A440D23937013E003EB43018A000C490A445278D2B2012A05D11B01094A1A44A6
:401440000823937004E01B01064A1A4409239370FFF77AFA10BD0020704700BF006000408C81FF1FFC5F004010B50E4B1C79E4B20D4B18780138C0B2FFF7CAFD43681B7956
:401480009C4201D9012C0AD8084A135DDBB208490B55044B9B78DBB21355012010BD002010BD00BF006000408481FF1F6C81FF1F8881FF1F10B59B4B1B78DBB200219A4AAF
:4014C000118013F0800F00F09C80964A5278D2B20A2A00F25F81DFE812F058005D015D015D015D015D010B005D0181005D0189008C4BDB78DBB2012B09D1FFF72BFE42683B
:40150000894B5A6012221A80FFF760FB10BD854BDB78DBB2022B13D1824B9878FFF778FD002800F0398142687F4B5A605A68D1785A68927842EA01221A80FFF747FB10BD63
:40154000784BDB78DBB2032B05D01BE00A7811440133DBB201E000237449724A9278D2B2934203D20A7812F0FF0FEFD10B7813F0FF0F00F013810B786B4A13805160FFF7A1
:4015800025FB10BD00F0A0F910BD13F0030317D0022B40F0058164490B80624B1B7903F07F0303EB43039A00614B1A449278D2B2604B1A7000225A704B60FFF707FB10BD30
:4015C000594902230B805C4B1A78D2B2594B1A7000225A704B60FFF7F9FA10BD524B01221A80564A5A60FFF7F1FA10BD4E4A012313804C4B1B7952490B445360FFF7E6FA12
:4016000010BD484A5278013A0A2A00F2CB80DFE812F04C00C9007900C9000B00C900C900C9001300C90030003E4B9B78DBB2454A1370FFF789F910BD3A4B9B7803F0FF0435
:401640001BB1601EC0B2FFF7E3FC04B110B9002C40F0AA80394B1B78DBB29C4206D0374B1C700120384B1870FFF794FDFFF76CF910BDFFF7F9FE002800F09880294A137978
:40168000DBB21279D2B231490A70314AD25CD2B22B49CB5CDBB29A4204D001222A4B1A70FFF7CAFCFFF750F910BD03F00303012B17D04BB1022B7BD11A4B9B7813F0FF0FA1
:4016C00078D1FFF77BFE10BD164B9B78DBB2012B72D1194A137803F0FD031370FFF734F910BD104B1B7913F0FF0F67D10D4B98781B79DBB21749CA5C22EA0002CA54FFF738
:4017000023F910BD03F00303012B32D023B3022B56D1044B9B7813F0FF0F53D1FFF71CFE10BD00BF006000407881FF1FA01A00008C81FF1F6481FF1FFD81FF1F8481FF1FDE
:401740006C81FF1F7581FF1F8A81FF1F8981FF1F8881FF1FFC81FF1F1D4B9B78DBB2012B32D11C4A137843F002031370FFF7ECF810BD174B1B7913F0FF0F27D1144B98783F
:401780001B79DBB21449CA5C22EA0002CA54FFF7DBF810BD002010BD002010BD002010BD002010BD002010BD002010BD002010BD002010BD002010BD002010BD002010BD94
:4017C000002010BD002010BD002010BD002010BD00600040FD81FF1FFC81FF1F044B1B7813F0800F01D0024B5B780020704700BF00600040014B1878704700BF626400406B
:40180000014B1878704700BF68640040014B1878704700BF65650040024B1878C0F38010704700BF8F45004001BE704708B5034B1B7A00FB03F000F037F808BDCC80FF1FF2
:4018400070B504460E46074B1D681F2802D90020FFF7EAFF04F01F04103455F8240045F8246070BD08ED00E038B504460D46072902D90020FFF7D8FF1F2C02D90020FFF760
:40188000D3FF04F01F0000F1604000F564406D01EDB2057038BD00BF014B1878704700BF67640040000000000230800803D000BF01380046FCD17047EFF3108072B67047E6
:4018C00080F31088704700BF08B5144B1B7803F00303012B02D0022B04D00FE00F4B1B79DBB20CE00D4B1B7903F07F0303EB43039A000B4B1A44937ADBB200E00023012BBE
:4019000007D8084A1268D35C032B04D1FFF768FA08BD002008BD002008BD00BF006000408C81FF1F7081FF1F014B1868704700BF3C81FF1F0E4B70B51E460E4C0025E41ACE
:40194000A410A54204D056F8253098470135F8E700F0ECF8084B094C1E46E41AA4100025A54204D056F8253098470135F8E770BD381B0000381B0000381B0000401B0000D7
:4019800010B5431E0A44914204D011F8014B03F8014FF8E710BD03460244934202D003F8011BFAE770470000000000004051004030000000014000100014014000080040EC
:4019C0000140000A004C0140000200500140200001000000D819000001000000181B0000000000000000000001000000F019000001000000EC1A000002000000141A0000F5
:401A000001000000241A000000000000101A000003000000000081030B0003000000020302000300010000002C1A000000000000601A000000000000541A0000000000006F
:401A400000000000010000006C1A000001000000FE1A0000030000000C82FF1F1C82FF1F050000001482FF1F1082FF1F2D0005010904A101050919012920150025017501EE
:401A80009520810205081901290C150025017501950C9102950175049103C00000000000040309042C0343007900700072006500730073002000530065006D00690063000D
:401AC0006F006E0064007500630074006F0072001A034300790043006F006E00740072006F006C006C006500720000000902290001010080FA09040000020300000009218F
:401B000011010001222D00070581030B000A0705020302000A0000001201000200000008B40411110000010200014300F8B500BFF8BC08BC9E4670474D00000091030000E3
:401B4000F8B500BFF8BC08BC9E46704729000000601B0000C880FF1F78000000E0000000000000000000E02EC05D00001800000000366E010000000000000000000000009C
:401B800000000000000000000000000000000000000000002A1B000000000000000000000000000000000000000000000000000000000000000000000000000000000000E0
:401BC0000000000000000000000000000000000000000000DC80FF1F000000000000000000000000000000000000000000000000000000000000000000000000000000006B
:401C000000000000000000000000000000000000000000000000000000000000000000000000000000000000000000000000000000000000000000000000000000000000A4
:401C40000000000000000000000000000000000000000000000000000000000000000000000000000000000000000000000000000000000000000000000000000000000064
:401C80000000000000000000000000000000000000000000000000000000000000000000000000000000000000000000000000000000000000000000000000000000000024
:401CC00000000000000000000000000000000000000000000000000000000000000000000000000000000000000000000000000000000000000000000000000000000000E4
:020000040003F7
:0200000480007A
:4000000001450040065200401D0201402B0301400805014009060140140701401E0801402D0901400E0B0140060D01401B1401402C15014017160140221701400619014013
:40004000041B014003400140114101400A42014006430140034401400E4501400F460140094701400448014015490140084C01400A4D014006500140015101407E0204FFA9
:400080000CFC14FF1CFF64FC7C7F06010A020B040F0216081B082A042F0130023108320433023401350136083704580459045B045F0182019701A602B001B301B602D804EF
:4000C000D904DF01000205140E1010101420172819421C081EA01F4021042508260227092F02300837103FA0450846A047015EA05F06642066A067808370850489028A02C0
:400100008B049810B010C068C220C444CA10CC22CE30D6F0D8F0E008EA049940A914AA10AB10AF02B005B302B4080701310159045F018301B301D904DB04DF01201024404B
:400140003A023F0859045A125B806050611063028F8099409A02A304AB04AE02CE41D60FD80FE60203020A0217012A042E0130023102330134013604580459045B045F017F
:4001800087019A049E08A601AA02AF02B008B202B302B404B601B701D804D904DB04DF01060808200940101814081740199A1D021E041F4023212508278028023608390485
:4001C0003E024508462059505D825E246620679189488D029104931098389A029B40A008A140A218B020B408C040C203C4C6CA08CC40CE82D6FCD8F0E612890493109818E7
:400200009A029B40A140A218B010B140B408B608B740EA80EE1087108A109A02B202E080EA2403012A0130013301580459045F0187088A048F02920897019A019B04AE02BC
:40024000B004B102B208B304B401B508B602B701D804D904DB04DF0106040E841004160219011E401F54220424102620278234013520370A38013F885C165F80640167A8C0
:400280008120820483448646870888068A208C058E4096089D01AB42AD20AF04B028B104B302C040C250C482CC60CE51D6F0D8F00E0212012B01300235013601580459049B
:4002C0005F0186018E0496029B01AB02B002B101B204B302B401D804D904DB04DF0101040302070208080F8019141B011C401D8020102201252029202F04302059415A0854
:400300005B20605061A0960299409B209D14A701AA10B320C085C214CA24CC04D60FD80FEA018C029C029E08AB20B380EE20B608E690EAA0EEA030103710CC300108020136
:40034000078208020A010E400F018002824083809C10AB10C0F0C2F0E0A0E480EA20032005029C10A908AA01AB03AE01C030E8B0ECA084109C10A902AF20E640EC301010C4
:400380001440C40C000801200508070109100B200C020F08A740AB40B050C00FC20FEA05000105028B109320A740B004B108B301B402B530B704C00CE204EA0FEE0E0B208B
:4003C0000F808710A740B102B401C20CEA01EE08031804100502C0F002020310051409400B100F4281148202831085408751A810AB10AD02AF08C0F0C2F0E0F0E4F0E820DE
:40040000ECD00010052008440C118D20C003C20FE2081020150189018C20B055B410C40CE609EA0DEE05000108010A010C0110011A01000AFFFF000000000000FCFC0000FB
:400440000000000040003F3F00000000C0000000FCFF030000000000FFFF000000000000FFFF00000000000000000000000000000000000000000000000000000000000004
:40048000000000000000000000000000000000000000000000000000000000000000000000000000000000000000000000000000000000000000000000000000000000003C
:4004C00000000000000000000000000000000000000000000000000000000000000000000000000000000000000000000000000000000000000000000000000000000000FC
:4005000000000000000000000000000000000000000000000000000000000000000000000000000000000000000000000000000000000000000000000000000000000000BB
:40054000000000000000000000000000000000000000000000000000000000000000000000000000000000000000000000000000000000000000000000000000000000007B
:0200000490006A
:0400000000004005B7
:0200000490105A
:04000000BC90ACAF55
:0200000490303A
:020000003A11B3
:0200000490402A
:4000000000000000000000000000000000000000000000000000000000000000000000000000000000000000000000000000000000000000000000000000000000000000C0
:400040000000000000000000000000000000000000000000000000000000000000000000000000000000000000000000000000000000000000000000000000000000000080
:400080000000000000000000000000000000000000000000000000000000000000000000000000000000000000000000000000000000000000000000000000000000000040
:4000C0000000000000000000000000000000000000000000000000000000000000000000000000000000000000000000000000000000000000000000000000000000000000
:0200000490501A
:0C00000000012E16106900012E214A7A22
:00000001FF